:020000040000FA
:1000000068030020C1000000DD040000CD040000F2
:10001000FFFFFFFFFFFFFFFFFFFFFFFFFFFFFFFFF0
:10002000FFFFFFFFFFFFFFFFFFFFFFFFF5040000E3
:10003000FFFFFFFFFFFFFFFFDF040000F7040000EA
:1000400035010000350100003501000035010000D8
:1000500035010000350100003501000035010000C8
:1000600035010000FFFFFFFF3501000035010000F2
:10007000350100003501000035010000FFFFFFFFE2
:10008000FFFFFFFF350100003501000035010000D2
:100090003501000035010000350100003501000088
:1000A000F5050000350100003501000035010000B4
:1000B0003501000035010000350100003501000068
:1000C0001D4880471D4880471D4800471D4801695D
:1000D000002908D14169002905D18169002902D18F
:1000E000C169002909D01848C1680901090D002912
:1000F0000ED005290CD006290AD0BFF34F8F134824
:100100001349016013491248C860BFF34F8FFEE7DF
:100110000E4801680E48884200D070470E480F49CB
:1001200001600A480E4901607047FEE7FEE7FEE7FE
:10013000FEE7FEE7FEE70000CD000000F904000046
:100140006501000000030840800108400000002015
:100150000400FA0500ED00E0008108400100000005
:10016000000000000348854600F01CF800480047E6
:10017000E90900006803002030B50B460146002065
:100180002022012409E00D46D5409D4205D31D469D
:100190009540491B2546954040191546521E002D95
:1001A000F1DC30BD064C0125064E05E0E36807CCC6
:1001B0002B430C3C98471034B442F7D3FFF7D6FFDB
:1001C000440B0000640B0000F0B596460A46134944
:1001D000C000461800230025FF2098402C461042FE
:1001E00016D00020012199408C461146C140674637
:1001F000394206D087000F21B9400D437146B940FE
:100200000C43401C0828F0D33068A84320433060DA
:100210000833361D082BDEDDF0BD00002020024033
:1002200010B507200121002240048903012300F0BA
:100230006FF810BD70B5184D0446686B4607760F11
:1002400000F02EF815492060330000F005FB08147B
:1002500005070714140E1114606000E06160296A3C
:100260006068052909D3400908E00120C003F3E7CD
:100270007D200002F0E70020EEE7C840A060A96AF8
:100280004903490F072902D0C840E06070BD03212F
:10029000FFF772FFF9E700000080084000127A00C3
:1002A0000C490868C869C20F4868400AC007C00FF7
:1002B0000ED00948002A0BD18869C00D0007000F35
:1002C00000D110208969044A4902890F5043C8406F
:1002D000704700000080084000127A001FB54109F5
:1002E0000A4A89008A1800212E2800D10221C0065E
:1002F000C00E1268032383401A40C2405418684657
:10030000FFF798FF029804B0E04010BD3880084025
:10031000F0B5084F7C6AFD6A3E6B84438D4396437B
:10032000002B02D004430D4316437C62FD623E6302
:10033000F0BD000000800840002A026801D00A4396
:1003400000E08A4302607047F0B50024254623464A
:10035000CE0706D05E001746B7403C430327B740A0
:100360003D4349085B1C102BF2D34169A94341610D
:10037000416921434161F0BD10B5012204210320F0
:10038000FFF722FF084C002204212046FFF7D4FF8C
:1003900000220421204600F041F8012204212046D9
:1003A00000F004F810BD000000600B40002A426815
:1003B00001D00A4300E08A434260704710B504212F
:1003C000054800F040F80549024608700121C903BC
:1003D000034800F03DF810BD00600B400000002015
:1003E00000400B4070B50122950329460220FFF71B
:1003F000EBFE0122D40321460220FFF7E5FE294649
:10040000054D01222846FFF797FF01222146284685
:10041000FFF792FF70BD000000400B40002A08D09B
:10042000012A09D082688A438260C2688A43C26016
:10043000704782680A43F7E7C2680A43C26082686D
:100440008A4382607047C069084000D0012070472D
:10045000002A01D04162704781627047F8B50546B5
:1004600013481349465D680010310C5A08460D3890
:10047000475DB0000C3108580090304600F0B8F9E4
:100480003A4621463046FFF79FFE284600F012F814
:10049000214602220098FFF7C1FF21460122009861
:1004A000FFF752FF214601220098FFF745FFF8BDF4
:1004B000000B0000044A4100515A103A105C8000C1
:1004C0001C32105841627047100B0000024801684E
:1004D0000029FCD0704700001800002070477047CA
:1004E0000349C2B20A600A69D205FCD57047000010
:1004F0000000044070477047F0B539491020C860CB
:10050000384A012010603849086B402528430863A9
:100510003648002344158668272EFCD100E044604D
:100520004668B605FBD500E043604668B605FBD4D7
:100530001360486A0322920290434862486801228D
:10054000D202104348608868C008C007FBD04868E2
:10055000C008C000C01C4860486B4007400F03281B
:10056000FAD1234A1068C008C000401C10600B621A
:100570004868A0434860086896153043086048689A
:1005800017153843486088688008C007FBD0086B9F
:10059000A84308630868B043086003200006886128
:1005A00048682043486088684008C007FBD010684E
:1005B000C008C000801C10600B624868C008C00002
:1005C000401C4860486B4007400F0128FAD1106872
:1005D0001021084310601068090208431060F0BD44
:1005E00000810840008308400080084000A10640C8
:1005F0000002084070B5254D2021284600F052F831
:1006000000280AD0284600F0A1F8214A1168214BA1
:100610001B685B18491C116018700221284600F005
:1006200046F800281CD08021284600F03BF800281E
:1006300016D0194C2068002812D01848026811788A
:10064000521C0260284600F084F82168491E21608F
:100650002068002804D100220221284600F06EF80C
:100660000421284600F023F800280ED0FF21013194
:10067000284600F017F8002807D000220421284659
:1006800000F05CF806490120086070BD00000440DD
:1006900008000020140000200400002010000020AA
:1006A0000C0000200069084000D001207047C0689D
:1006B000084000D00120704770B504460D46C88838
:1006C0008988626808432989184B1A4011430843F6
:1006D00069890843606001208007844206D11820A0
:1006E000FFF7FCFD2968FFF747FD60621048844270
:1006F00006D11A20FFF7F2FD2968FFF73DFD606281
:100700000C48844206D11C20FFF7E8FD2968FFF75A
:1007100033FD60620848844206D11E20FFF7DEFDEB
:100720002968FFF729FD606270BD0000FCE0FFFF53
:10073000000004400010004000100440002AC2687D
:1007400001D00A4300E08A43C2607047006880B26B
:1007500070470160704710238B404168002A01D028
:10076000194300E099434160704700003EB5002402
:10077000012021210004490201232246FFF7C8FD80
:10078000002220211748FFF749FE062210210020F1
:10079000FFF71AFD062220210020FFF715FD4B2050
:1007A000C0010090FF2001940294013069468880C6
:1007B000CC800C814C810C4C2046FFF77DFF0B4A0E
:1007C000A1011160012211462046FFF7B7FF012267
:1007D00000212046FFF7BFFF012211462046FFF708
:1007E000BAFF3EBD00000B400000044000E100E005
:1007F0001CB50022009201216B4601921954187811
:100800004904C007C00B88435978C907890B0843BE
:100810000121890488439978C907490B08430121BC
:10082000C9048843D9780123C907090B084301216A
:100830008903FFF76DFD1CBD0FB410B503A9044B70
:10084000044A029800F024F810BC08BC04B0184711
:10085000E10900001C00002030B47446641E2578B5
:10086000641CAB4200D21D46635D5B00E31830BCE4
:10087000184702E008C8121F08C1002AFAD17047C1
:100880007047002001E001C1121F002AFBD1704710
:10089000FFB58DB00446002506E025280AD0109A41
:1008A0000F999047641C6D1C20780028F5D12846CC
:1008B00011B0F0BD00270121484A009700E007432E
:1008C000641C23780846203B98401042F7D12078DA
:1008D0002E2817D1042007436078641C2A280CD1E5
:1008E0000E98641C02C800910E900BE000990A2239
:1008F000514330394018641C00902078014630394B
:100900000929F3D920780028D1D0642808D0692893
:1009100006D075281ED0109A0F9990476D1C5BE089
:100920000A200E99019001C90E91002802DA404276
:100930002D2102E0390504D52B216A4611720121CF
:1009400003E0F90704D02021F7E70BAE0B910DE08F
:100950000021FAE70A200E99019001C90E91F7E7EC
:100960000199FFF709FC3031761E31700028F7D16C
:1009700003A8801B20300190780701D5009801E082
:10098000012000900199884201DD401A00E000201A
:100990000027009006E002A8109AC05D0F999047CA
:1009A0006D1C7F1C0B988742F5DB04E0109A302009
:1009B0000F9990476D1C0099481E00900029F5DCA6
:1009C00005E03078109A761C0F9990476D1C0199BC
:1009D000481E01900029F4DC641C65E70928010029
:1009E00010B5FFF77DFD10BD1CB50020044600903A
:1009F000FFF716FCFFF7C0FCFFF7F4FC0020FFF741
:100A00002DFD0120FFF72AFD304D2F486861FFF7CB
:100A1000ADFE012600272C48E32180300170C8215B
:100A20004170AB2181700421C170FFF7C7FC6F706A
:100A3000A8680028EFD0244800786E70612802D0A2
:100A400062281BD039E00121002289032048FFF7EA
:100A5000FFFCE878002801D1641C0194EE701DA011
:100A6000FFF7EAFE1CA00199FFF7E6FE1BA0FFF7C7
:100A7000E3FE1BA0FFF7E0FE1AA019E0012100220F
:100A800089031348FFF7E4FCA878002801D1641C0F
:100A90000094AE700FA0FFF7CFFE0FA00099FFF7F4
:100AA000CBFE0EA0FFF7C8FE0DA0FFF7C5FE10A0FD
:100AB000FFF7C2FE11A0FFF7BFFEAF606878012804
:100AC000A9D16F70A7E70000D2000020000000202D
:100AD00000400B405100000025640000530000005E
:100AE0004900000035313039324237420000000001
:100AF00045334338414230340000000044000000D8
:100B00000202020101010103030101010C010200C3
:100B100000400080020000100200040000000B40B2
:100B200000200B4000400B4000600B400000000024
:100B3000000000000000044000001000060000005B
:100B400020000600640B00000000002020000000D0
:100B500072080000840B0000200000204803000001
:100B600082080000000000000000000000000000FB
:100B70000000000000000000000000000000000075
:040B80000000000071
:04000005000000C136
:00000001FF
