:020000040000FA
:1000000070030020C1000000110500000105000080
:10001000FFFFFFFFFFFFFFFFFFFFFFFFFFFFFFFFF0
:10002000FFFFFFFFFFFFFFFFFFFFFFFF29050000AE
:10003000FFFFFFFFFFFFFFFF130500008905000022
:1000400035010000350100003501000035010000D8
:1000500035010000350100003501000035010000C8
:1000600035010000FFFFFFFF3501000035010000F2
:10007000350100003501000035010000FFFFFFFFE2
:10008000FFFFFFFF350100003501000035010000D2
:100090003501000035010000350100003501000088
:1000A000890600003501000035010000350100001F
:1000B0003501000035010000350100003501000068
:1000C0001D4880471D4880471D4800471D4801695D
:1000D000002908D14169002905D18169002902D18F
:1000E000C169002909D01848C1680901090D002912
:1000F0000ED005290CD006290AD0BFF34F8F134824
:100100001349016013491248C860BFF34F8FFEE7DF
:100110000E4801680E48884200D070470E480F49CB
:1001200001600A480E4901607047FEE7FEE7FEE7FE
:10013000FEE7FEE7FEE70000CD0000008D050000B1
:100140006501000000030840800108400000002015
:100150000400FA0500ED00E0008108400100000005
:10016000000000000348854600F036F800480047CC
:10017000B10A00007003002030B50B460146002094
:100180002022012409E00D46D5409D4205D31D469D
:100190009540491B2546954040191546521E002D95
:1001A000F1DC30BD03460B439B0703D009E008C9CF
:1001B000121F08C0042AFAD203E00B780370401C17
:1001C000491C521EF9D27047421C0178401C00297C
:1001D000FBD1801A70470000064C0125064E05E051
:1001E000E36807CC2B430C3C98471034B442F7D358
:1001F000FFF7BCFF680C0000880C0000F0B59646C5
:100200000A461349C000461800230025FF209840E5
:100210002C46104216D00020012199408C461146F0
:10022000C1406746394206D087000F21B9400D43CF
:100230007146B9400C43401C0828F0D33068A843ED
:10024000204330600833361D082BDEDDF0BD000092
:100250002020024010B5072001210022400489031C
:10026000012300F06FF810BD70B5184D0446686B9F
:100270004607760F00F02EF815492060330000F095
:100280004FFB081405070714140E1114606000E0FA
:100290006160296A6068052909D3400908E00120E6
:1002A000C003F3E77D200002F0E70020EEE7C8403E
:1002B000A060A96A4903490F072902D0C840E0603D
:1002C00070BD0321FFF758FFF9E7000000800840E8
:1002D00000127A000C490868C869C20F4868400AD1
:1002E000C007C00F0ED00948002A0BD18869C00D85
:1002F0000007000F00D110208969044A4902890FC4
:100300005043C840704700000080084000127A0047
:100310001FB541090A4A89008A1800212E2800D1F8
:100320000221C006C00E1268032383401A40C24057
:1003300054186846FFF798FF029804B0E04010BDDB
:1003400038800840F0B5084F7C6AFD6A3E6B8443F4
:100350008D439643002B02D004430D4316437C6229
:10036000FD623E63F0BD000000800840002A026884
:1003700001D00A4300E08A4302607047F0B50024D0
:1003800025462346CE0706D05E001746B7403C43BD
:100390000327B7403D4349085B1C102BF2D341694A
:1003A000A9434161416921434161F0BD10B501227A
:1003B00004210320FFF722FF084C002204212046DD
:1003C000FFF7D4FF00220421204600F041F801226B
:1003D0000421204600F004F810BD000000600B402E
:1003E000002A426801D00A4300E08A434260704715
:1003F00010B50421054800F040F805490246087090
:100400000121C903034800F03DF810BD00600B4016
:100410000000002000400B4070B5012295032946E2
:100420000220FFF7EBFE0122D40321460220FFF752
:10043000E5FE2946054D01222846FFF797FF0122D8
:1004400021462846FFF792FF70BD000000400B4098
:10045000002A08D0012A09D082688A438260C268D3
:100460008A43C260704782680A43F7E7C2680A435A
:10047000C26082688A4382607047C069084000D0C9
:1004800001207047002A01D04162704781627047A5
:10049000F8B5054613481349465D680010310C5AFB
:1004A00008460D38475DB0000C31085800903046C2
:1004B00000F002FA3A4621463046FFF79FFE2846F2
:1004C00000F012F8214602220098FFF7C1FF2146F2
:1004D00001220098FFF752FF214601220098FFF702
:1004E00045FFF8BD240C0000044A4100515A103A5F
:1004F000105C80001C32105841627047340C0000C0
:10050000024801680029FCD0704700001C00002050
:10051000704770470349C2B20A600A69D205FCD528
:10052000704700000000044070470000F3B500244D
:1005300081B00F4625460846FFF746FEC6B2114871
:10054000FD21017000214170F11C81700121C170F9
:1005500001990901491C0171415D6D1C4C40052D3B
:10056000FAD3002102E07A5C5440491CB142FAD32C
:10057000054632463946401DFFF714FEA81944715E
:10058000FEBD00002400002070470000F0B539498E
:100590001020C860384A012010603849086B402597
:1005A000284308633648002344158668272EFCD16B
:1005B00000E044604668B605FBD500E0436046684D
:1005C000B605FBD41360486A032292029043486246
:1005D00048680122D202104348608868C008C007FA
:1005E000FBD04868C008C000C01C4860486B40078A
:1005F000400F0328FAD1234A1068C008C000401CED
:1006000010600B624868A043486008689615304344
:100610000860486817153843486088688008C00734
:10062000FBD0086BA84308630868B0430860032048
:100630000006886148682043486088684008C00711
:10064000FBD01068C008C000801C10600B624868B6
:10065000C008C000401C4860486B4007400F01289C
:10066000FAD110681021084310601068090208438D
:100670001060F0BD00810840008308400080084001
:1006800000A106400002084070B5254D20212846F3
:1006900000F052F800280AD0284600F0A1F8214ABC
:1006A0001168214B1B685B18491C116018700221EE
:1006B000284600F046F800281CD08021284600F08B
:1006C0003BF8002816D0194C2068002812D0184892
:1006D00002681178521C0260284600F084F82168F4
:1006E000491E21602068002804D1002202212846EA
:1006F00000F06EF80421284600F023F800280ED000
:10070000FF210131284600F017F8002807D0002209
:100710000421284600F05CF806490120086070BDFD
:10072000000004400C0000201800002008000020F9
:1007300014000020100000200069084000D00120B3
:100740007047C068084000D00120704770B504466B
:100750000D46C8888988626808432989184B1A4061
:10076000114308436989084360600120800784427F
:1007700006D11820FFF7CCFD2968FFF7FDFC606269
:100780001048844206D11A20FFF7C2FD2968FFF7FE
:10079000F3FC60620C48844206D11C20FFF7B8FDD0
:1007A0002968FFF7E9FC60620848844206D11E20F0
:1007B000FFF7AEFD2968FFF7DFFC606270BD000047
:1007C000FCE0FFFF00000440001000400010044067
:1007D000002AC26801D00A4300E08A43C260704721
:1007E000006880B270470160704710238B404168F9
:1007F000002A01D0194300E099434160704700008E
:100800003EB5002401202121000449020123224693
:10081000FFF798FD002220211748FFF719FE062256
:1008200010210020FFF7EAFC062220210020FFF71C
:10083000E5FC4B20C0010090FF20019402940130A0
:1008400069468880CC800C814C810C4C2046FFF797
:100850007DFF0B4AA1011160012211462046FFF7DE
:10086000B7FF012200212046FFF7BFFF01221146FA
:100870002046FFF7BAFF3EBD00000B4000000440D9
:1008800000E100E010B5094C0020206108486061DB
:100890003120A060012206210648FFF799FFA068D9
:1008A0000028FCD120690028FCD010BD00000020E9
:1008B00024000020000004401CB500220092012109
:1008C0006B460192195418784904C007C00B88433D
:1008D0005978C907890B084301218904884399780D
:1008E000C907490B08430121C9048843D97801236A
:1008F000C907090B084301218903FFF723FD1CBD2C
:100900000FB410B503A9044B044A029800F024F870
:1009100010BC08BC04B01847A90A00002000002041
:1009200030B47446641E2578641CAB4200D21D4668
:10093000635D5B00E31830BC184702E008C8121F73
:1009400008C1002AFAD170477047002001E001C1B8
:10095000121F002AFBD17047FFB58DB00446002559
:1009600006E025280AD0109A0F999047641C6D1C48
:1009700020780028F5D1284611B0F0BD00270121CC
:10098000484A009700E00743641C23780846203B50
:1009900098401042F7D120782E2817D10420074321
:1009A0006078641C2A280CD10E98641C02C800913F
:1009B0000E900BE000990A22514330394018641C14
:1009C00000902078014630390929F3D92078002891
:1009D000D1D0642808D0692806D075281ED0109A76
:1009E0000F9990476D1C5BE00A200E99019001C998
:1009F0000E91002802DA40422D2102E0390504D58B
:100A00002B216A461172012103E0F90704D020214D
:100A1000F7E70BAE0B910DE00021FAE70A200E99E3
:100A2000019001C90E91F7E70199FFF7A5FB30315D
:100A3000761E31700028F7D103A8801B203001906A
:100A4000780701D5009801E00120009001998842C3
:100A500001DD401A00E000200027009006E002A817
:100A6000109AC05D0F9990476D1C7F1C0B988742B0
:100A7000F5DB04E0109A30200F9990476D1C009927
:100A8000481E00900029F5DC05E03078109A761CAD
:100A90000F9990476D1C0199481E01900029F4DCC4
:100AA000641C65E70928010010B5FFF733FD10BD90
:100AB0001CB5002004460090FFF7CCFBFFF776FC46
:100AC000FFF7AAFC0020FFF7E3FC0120FFF7E0FCA2
:100AD000384D3748A861FFF793FE012600273448B8
:100AE000E32180300170C8214170AB218170042165
:100AF000C170FFF77DFC6F70E8680028EFD02C48CC
:100B000000786E70612805D062281ED028793128BF
:100B10003BD046E028A10220FFF708FDFFF7B2FE18
:100B20000121002289032C48FFF7ACFCE87800285B
:100B300001D1641C0194EE7028A00199FFF7E0FE3A
:100B400028A0FFF7DDFE28A019E02AA10220FFF768
:100B5000EDFCFFF797FE0121002289031E48FFF7F5
:100B600091FCA878002801D1641C0094AE701BA0F1
:100B70000099FFF7C5FE1BA0FFF7C2FE25A0FFF7F7
:100B8000BFFE27A0FFF7BCFE0BE01AA10220FFF773
:100B9000CDFCFFF777FE0121002289030E48FFF705
:100BA00071FCEF606878012899D16F7097E70000B9
:100BB000D6000020000000205B76375D5B6D315D64
:100BC0005B74355DBFA1C8D9D0C5CFA2C2BCC8EB8C
:100BD000B3C9B9A60000000000400B40422564489C
:100BE0000000000049000000353130393242374200
:100BF000000000005B76375D5B6D315D5B74355DD9
:100C0000D1EEC3FAD0C5CFA2C2BCC8EBB3C9B9A656
:100C100000000000453343384142303400000000FA
:100C2000440000000202020101010103030101016D
:100C30000C010200004000800200001002000400CD
:100C400000000B4000200B4000400B4000600B40B8
:100C50000000000000000000000004400000100040
:100C60000600000020000600880C000000000020A4
:100C7000240000003A090000AC0C00002400002011
:100C80004C0300004A0900000000000000000000C2
:100C90000000000000000000000000000000000054
:0C0CA00000000000000000000000000048
:04000005000000C136
:00000001FF
