:020000040800F2
:1000000000160020010100086504000889030008AB
:100010006104000849020008D91C00080000000023
:10002000000000000000000000000000110F0008A8
:1000300069020008000000005D0C00084110000883
:100040001B0100081B0100081B0100081B01000820
:100050001B0100081B0100081B0100081B01000810
:100060001B0100081B0100081B0100081B01000800
:100070001B0100081B0100081B0100081B010008F0
:100080001B0100081B0100081B0100081B010008E0
:100090001B0100081B0100081B0100081B010008D0
:1000A0001B0100081B0100081B0100081B010008C0
:1000B0008D140008A5140008211700081B01000872
:1000C0001B0100081B0100081B0100081B010008A0
:1000D0001B0100081B0100081B0100081B01000890
:1000E0001B0100081B0100081B010008DFF80CD0F1
:1000F00000F04AF8004800476D2100080016002073
:100100000648804706480047FEE7FEE7FEE7FEE7B1
:10011000FEE7FEE7FEE7FEE7FEE7FEE74510000824
:10012000ED0000082DE9F05F0546002092469B4651
:1001300088460646814640241BE0284641464746FD
:10014000224600F042F853465A46C01A914110D355
:1001500011461846224600F029F82D1A67EB0108CF
:100160004F4622460120002100F020F817EB00093D
:100170004E41201EA4F10104DFDC484631462A46E8
:100180004346BDE8F09F0000064C074D06E0E068DE
:1001900040F0010394E8070098471034AC42F6D3CE
:1001A000FFF7A8FFE02C0008002D0008202A04DB40
:1001B000203A00FA02F1002070479140C2F120037A
:1001C00020FA03F3194390407047202A04DB203AB9
:1001D00021FA02F00021704721FA02F3D040C2F167
:1001E0002002914008431946704770B58D1810F8E9
:1001F000014B14F0030201D110F8012B231106D199
:1002000010F8013B03E010F8016B01F8016B521E7E
:10021000F9D1ABB110F8012B04F00C048A1A0C2CA4
:1002200003D0A2EB84129B1C08E010F8014BA2EB58
:100230000422F8E712F8014B01F8014B5B1EF9D5D7
:10024000A942D4D3002070BD00BFFEE770B50546BB
:100250000C460026284600F0B3FD064626EA0401B7
:10026000284601F03BFD70BD70472DE9F041024684
:1002700000250026002000230024002791F803C059
:100280000CF00F0591F803C00CF0100CBCF1000F3E
:1002900003D091F802C04CEA050591F800C0BCF10A
:1002A000000F31D0146800202BE04FF0010C0CFA45
:1002B00000F3B1F800C00CEA03069E4220D183008F
:1002C0004FF00F0C0CFA03F7BC4305FA03FC4CEAA1
:1002D000040491F803C0BCF1280F06D14FF0010CC3
:1002E0000CFA00FCC2F814C00AE091F803C0BCF19B
:1002F000480F05D14FF0010C0CFA00FCC2F810C0F9
:10030000401C0828D1D31460B1F800C0BCF1FF0F25
:1003100034DD546800202EE000F1080C4FF0010895
:1003200008FA0CF3B1F800C00CEA03069E4221D192
:1003300083004FF00F0C0CFA03F7BC4305FA03FCE3
:100340004CEA040491F803C0BCF1280F05D100F178
:10035000080C08FA0CF8C2F8148091F803C0BCF13C
:10036000480F07D100F1080C4FF0010808FA0CF80B
:10037000C2F81080401C0828CED35460BDE8F0813C
:10038000416170470161704700BFFEE708B5012178
:10039000082000F09BFC4FF48050ADF800000420D2
:1003A0008DF8030069461248FFF75FFF4FF40050D5
:1003B000ADF8000004208DF8030069460C48FFF7F3
:1003C00054FF4FF48040ADF8000004208DF8030086
:1003D00069460748FFF749FF4FF40040ADF80000B9
:1003E00004208DF8030069460248FFF73EFF08BD70
:1003F000000C01400010014008B50121102000F060
:1004000065FC0121042000F061FC4FF40050ADF8C0
:10041000000010208DF8030003208DF802006946CB
:100420000D48FFF722FF4FF400510B48FFF7AAFFDA
:100430004FF48050ADF8000010208DF80300032029
:100440008DF8020069460548FFF70FFF4FF4805111
:100450000248FFF797FF08BD001001400008014067
:1004600000BFFEE77047000070B5002100230F2297
:10047000C47804B3154C246804F4E064C4F5E06463
:10048000210AC1F10403CA40447804FA03F18478D4
:100490001440214309010E4C0678A155047804F05C
:1004A0001F050124AC4005786D11AD0005F1E02574
:1004B000C5F8004109E0047804F01F050124AC40B0
:1004C000044D0678761145F8264070BD0CED00E02D
:1004D00000E400E080E100E002490143024A1160CB
:1004E000704700000000FA050CED00E070B5002434
:1004F00019E004F1B001C8B2002100F027FA002190
:10050000084600F023FA0021102000F01FFA002511
:1005100005E00121002000F019FA681CC5B2802D09
:10052000F7DB601CC4B2082CE3DB70BD08B5012109
:10053000082000F0CBFB4FF47870ADF800001020DD
:100540008DF8030003208DF8020069464A48FFF742
:100550008CFE4FF478714848FFF714FF802146481D
:10056000FFF710FF642001F0A3FD80214248FFF750
:1005700007FFC82001F09CFD80213F48FFF702FFE4
:100580000021AE2000F0E2F90021084600F0DEF97B
:100590000021102000F0DAF90021402000F0D6F907
:1005A0000021812000F0D2F90021CF2000F0CEF907
:1005B0000021A12000F0CAF90021C82000F0C6F9EE
:1005C0000021A62000F0C2F90021A82000F0BEF909
:1005D00000213F2000F0BAF90021D32000F0B6F945
:1005E0000021084600F0B2F90021D52000F0AEF954
:1005F0000021802000F0AAF90021D92000F0A6F9FE
:100600000021F12000F0A2F90021DA2000F09EF98B
:100610000021122000F09AF90021DB2000F096F969
:100620000021402000F092F90021202000F08EF9F6
:100630000021022000F08AF900218D2000F086F9C7
:100640000021142000F082F90021A42000F07EF99E
:100650000021A62000F07AF90021AF2000F076F901
:100660000021AF2000F072F9FFF740FF002108469B
:1006700000F004F808BD0000000C014070B504460D
:100680000D4605F1B001C8B2002100F05FF910215C
:1006900041EA1410002100F059F904F00F0141F073
:1006A0000100002100F052F970BD00002DE9F04179
:1006B00080460E461546002731464046FFF7DEFFCE
:1006C00000240AE0124A02EB8511085D012100F0C6
:1006D0003DF9781CC7B2601CC4B2102CF2DB701C50
:1006E000C1B24046FFF7CAFF00240CE06900491C74
:1006F000074A02EB4111085D012100F027F9781C3F
:10070000C7B2601CC4B2102CF0DBBDE8F081000061
:10071000580000202DE9F04180460E46154600277E
:1007200031464046FFF7AAFF00240AE0124A02EBD6
:100730008511085D012100F009F9781CC7B2601C21
:10074000C4B2102CF2DB701CC1B24046FFF796FF1A
:1007500000240CE06900491C074A02EB4111085DC6
:10076000012100F0F3F8781CC7B2601CC4B2102C51
:10077000F0DBBDE8F08100005806002010B5002431
:1007800006E0E2B22107080E0021FFF78FFF641C8C
:10079000082CF6DB002408E004F10801CAB22107A6
:1007A000080E0221FFF782FF641C082CF4DB10BD49
:1007B00010B5002406E0E2B22107080E0021FFF781
:1007C00075FF641C082CF6DB002408E004F110011E
:1007D000CAB22107080E0221FFF768FF641C082C2B
:1007E000F4DB10BD2DE9F04107460E46904600258A
:1007F0000024A8F12000C5B27F2F02DD0027B01C25
:10080000C6B231463846FFF739FF002408E004EB52
:1008100005110F4A505C012100F098F8601CC4B229
:10082000082CF4DB701CC1B23846FFF727FF002408
:1008300009E004EB05110831054A505C012100F084
:1008400085F8601CC4B2082CF3DBBDE8F081000021
:10085000EE26000810B5FFF7ABFF002408E004F116
:100860000F01CAB22107080E0421FFF753FF641CD1
:10087000082CF4DB002408E004F11801CAB22107B7
:10088000080E0621FFF746FF641C062CF4DB10BDA2
:100890002DE9FF5F074691461D460E9E4FF0000A68
:1008A000002433E0281B401EC1B20A2001F000FEE4
:1008B000B9FBF0F00A21B0FBF1F201FB1208BAF12A
:1008C000000F13D1681EA04210DDB8F1000F0BD14C
:1008D000B34606EBDB71491001FB0471C8B220225C
:1008E0000199FFF77FFF0FE04FF0010AB34606EBD7
:1008F000DB71491001FB0471C8B208F13001CAB2C2
:100900000199FFF76FFF00BF601CC4B2AC42C9DBA6
:10091000BDE8FF9F10B5FFF74BFF002406E0E2B2F1
:100920002107080E0421FFF7F5FE641C082CF6DBF6
:10093000002408E004F10901CAB22107080E0621CB
:10094000FFF7E8FE641C062CF4DB10BD70B504460E
:100950000E4626B140211C48FFF714FD03E040215C
:100960001948FFF70DFD20211748FFF709FD002565
:100970001BE04FF400711448FFF702FD04F0800003
:1009800028B14FF480711048FFF7FCFC04E04FF4ED
:1009900080710D48FFF7F4FC4FF400710A48FFF72F
:1009A000F1FC6006040E681CC5B2082DE1DB2021B5
:1009B0000548FFF7E7FC20210348FFF7E3FC40214F
:1009C0000148FFF7DFFC70BD000C014010B50321AA
:1009D0001420FFF73BFC10BD10B5142000F0F0F917
:1009E000044604F0030018B90321142000F091FA22
:1009F00010BDF0B587B00546002708210846FFF76F
:100A000025FC00210D2001F069F980210E20FFF75F
:100A10001DFC93208DF8040020208DF8050006A809
:100A200001AB022201A900900C2000F01AF8064642
:100A300086B9002407E001A8005D285501A8005DE3
:100A40004740601CC4B2042CF5DB01A8005DB8422D
:100A500000D0FE2680210E2000F05BFA304607B061
:100A6000F0BD2DE9FE4F0646884691469A46DDF8D0
:100A700030B0FE2002900020019000900C2E06D095
:100A80000E2E09D1122001901020009005E0772051
:100A900001903020009000E000BF00BF019840F0BE
:100AA0008001022001F01AF980210420FFF7CEFB1B
:100AB0000021012001F012F980210A2000F029FA1A
:100AC000002505E018F80510092001F007F96D1C54
:100AD0004D45F7D33146012001F000F90C2E03D12A
:100AE00080210D2000F015FA4FF4167500BF042088
:100AF00000F066F904466D1E35B104F0010018B926
:100B0000009820400028F2D080210D20FFF79EFBA6
:100B100095B3062000F054F900F01B0068BB0020DC
:100B200002900198204000F0010008B1FF200290DF
:100B30000C2E24D10A2000F043F904460C2000F0CA
:100B40003FF900F007072FB1601E07EBC000CBF89C
:100B5000000002E0E000CBF8000004B90124122CF0
:100B600000DD1224002505E0092000F029F90AF82B
:100B700005006D1CA542F7D301E0FE200290802104
:100B80000C2000F0C6F90021012001F0A7F802981E
:100B9000BDE8FE8F70B588B005460C4608210846B2
:100BA000FFF754FB07210D2001F098F803211420D2
:100BB00000F0AFF98DF8085007A802AB012202A996
:100BC00000900C20FFF74DFF06464EB907981028FD
:100BD00006D19DF8080020709DF80900607000E0C3
:100BE000FE26304608B070BD10B5012019490860D6
:100BF0000A2001F083FA00201749C1F8B8010A2041
:100C000001F07CFA0120134908600A2001F076FA0D
:100C10000F21012001F062F80A2001F06FFA3D2156
:100C2000112001F05BF81E212D2001F057F8002162
:100C30002C2001F053F88D212A2001F04FF83E219D
:100C40002B2001F04BF84021152001F047F800203F
:100C500010BD0000B801224200002242704700008F
:100C600008B50121042000F031F844F27000ADF81D
:100C7000000010208DF8030003208DF80200694663
:100C80000948FFF7F2FA44F270010748FFF77AFBD0
:100C90008020ADF8000048208DF803006946024826
:100CA000FFF7E3FA08BD00000008014029B1064A39
:100CB000D2690243044BDA6104E0034AD2698243F9
:100CC000014BDA61704700000010024029B1064A6A
:100CD00092690243044B9A6104E0034A9269824399
:100CE000014B9A61704700000010024030B50021AE
:100CF0000022002400232D4D6D6805F00C0121B168
:100D0000042905D0082923D105E0294D056022E0FA
:100D1000274D05601FE0254D6D6805F47012234DC9
:100D20006D6805F48034022505EB92421CB9214D13
:100D3000554305600BE01D4D6D6805F400351DB190
:100D40001C4D5543056002E0194D5543056002E016
:100D5000174D056000BF00BF144D6D6805F0F00130
:100D60000909154D6B5C0568DD4045600F4D6D68E8
:100D700005F4E061090A104D6B5C4568DD40856053
:100D80000A4D6D6805F46051C90A0B4D6B5C4568EE
:100D9000DD40C560054D6D6805F44041890B074D88
:100DA0006B5CC568B5FBF3F5056130BD0010024012
:100DB00000127A0000093D00400000205000002091
:100DC0002DE9F04106460025002020490860204911
:100DD000C1F890017E2000EA460040F08007082418
:100DE00012E0C7F3C0101949091D08600120184915
:100DF000C1F894017806070E0020144908600A2003
:100E000001F07CF9601EC4B2002CEADC082410E07A
:100E100001200E4908606806050E0D48D0F81C0137
:100E20002843C5B2002008600A2001F067F9601E5F
:100E3000C4B2002CECDC01200449091F08600449FD
:100E4000C1F894012846BDE8F081000094012142D8
:100E50000000214200B589B001210820FFF736FFCC
:100E600001210220FFF722FF0220ADF8200004201C
:100E70008DF8230003208DF8220008A92248FFF7EF
:100E8000F4F942F21070ADF818004820ADF81400E3
:100E90000020ADF81A00ADF8160005A91B4800F0B7
:100EA000BFFD0C20ADF808000020ADF80A000120BD
:100EB000ADF80C000020ADF80E00ADF8100002A94E
:100EC000124800F075FC4FF4A060FFF705FB1D20F1
:100ED0008DF8040000208DF8050001208DF8060033
:100EE0008DF8070001A8FFF7BFFA1121074800F0AD
:100EF00037FC0121054800F039FC0122112103488B
:100F000000F0ACFC09B000BD000C01400004004042
:100F1000704770B505460C4600262846FFF750FF7F
:100F2000064646EA0401284600F0D8FE70BD10B51A
:100F300000F002F810BD00000CB5002001900090F8
:100F40003348006840F480303149086000BF3048C1
:100F5000006800F4003000900198401C0190009857
:100F600018B90198B0F5A06FF1D12948006800F4D4
:100F7000003010B10120009001E0002000900098A6
:100F8000012843D12348006840F01000214908603F
:100F90000846006820F0030008600846006840F03A
:100FA000020008601A4840681949486008464068CD
:100FB00048600846406840F48060486008464068E1
:100FC00020F47C1048600846406840F4E81048600F
:100FD0000846006840F08070086000BF0C48006858
:100FE00000F000700028F9D00948406820F00300A4
:100FF000074948600846406840F00200486000BF6A
:101000000348406800F00C000828F9D10CBD00002E
:101010000010024000200240042808D14FF0E021D7
:10102000096941F004014FF0E022116107E04FF03F
:10103000E021096921F004014FF0E02211617047BD
:101040007047000010B51348006840F001001149D6
:10105000086008464068104908400E494860084644
:1010600000680E4908400B4908600846006820F4F3
:10107000802008600846406820F4FE0048604FF475
:101080001F008860FFF753FF4FF0006004490860BD
:1010900010BD0000001002400000FFF8FFFFF6FE48
:1010A00008ED00E008B501210820FFF70FFE4FF41E
:1010B0007040ADF8000010208DF8030003208DF87B
:1010C000020069460148FFF7D0F808BD000C014056
:1010D00030B589B005460C4601210820FFF7F6FD22
:1010E0000320ADF8040018208DF8070003208DF8C8
:1010F000060001A92848FFF7B8F801210220FFF7F0
:10110000D5FD681E80B2ADF80C00601E80B2ADF84F
:1011100008000020ADF80E00ADF80A0002A91F4833
:1011200000F07EFC01211D4800F01AFB012211464F
:101130001A4800F093FB6020ADF814000120ADF8D0
:1011400016000020ADF81A00ADF81C0005A91348E0
:1011500000F08EFB0821114800F0DAFB6020ADF8AA
:1011600014000120ADF816000020ADF81A00ADF80B
:101170001C0005A9094800F0D9FB0821074800F028
:1011800013FC0121054800F0DFFA0121034800F0BB
:10119000EDFA09B030BD0000000C01400004004031
:1011A0007FB505460C466020ADF800000120ADF883
:1011B0000200ADF8065069460A4800F059FB0821C4
:1011C000084800F0A5FBADF806406946054800F068
:1011D000ADFB0821034800F0E7FB0121014800F0C6
:1011E000B3FA7FBD00040040F0B50C46154600225E
:1011F0000021068C4FF6FE773E400684028B018C60
:101200004FF60C7632407E1C06EA03162E4332431C
:10121000104EB0420ED0104EB0420BD0B0F1804F05
:1012200008D00E4EB04205D00D4EB04202D00D4E49
:10123000B04206D14FF6FD76314044F0010631430D
:1012400005E04FF6F576314044F001063143028364
:101250000184F0BD002C0140003401400004004036
:1012600000080040000C0040F0B50C461546002276
:1012700000210026078C4FF6EF7C07EA0C07078455
:10128000028B018C4FF6FF7707EA041640F6FF4702
:101290003A404FF6FF7707EA03373A434FF6FF77B6
:1012A00007EA05273A43114FB8420ED0104FB84213
:1012B0000BD0B0F1804F08D00E4FB84205D00E4F82
:1012C000B84202D00D4FB84206D14FF6DF77394011
:1012D00046F01007394305E04FF65F77394044F098
:1012E0001007394302830184F0BD0000002C014047
:1012F000003401400004004000080040000C0040A1
:10130000F0B50C461546002200210026078C4FF64A
:10131000FF6C07EA0C070784828B018C4FF6FF777E
:1013200007EA04264FF60C773A404FF6FF7707EAB4
:1013300003172F433A43114FB8420ED0104FB84213
:101340000BD0B0F1804F08D00E4FB84205D00E4FF1
:10135000B84202D00D4FB84206D14FF6FF57394080
:1013600046F48077394305E04FF2FF57394044F4A3
:101370008077394382830184F0BD0000002C014056
:10138000003401400004004000080040000C004010
:10139000F0B50C461546002200210026078C4EF6BB
:1013A000FF7C07EA0C070784828B018C4FF6FF77DE
:1013B00007EA043640F6FF473A404FF6FF7707EA60
:1013C00005273A434FF6FF7707EA03373A43114FB1
:1013D000B8420ED0104FB8420BD0B0F1804F08D0B9
:1013E0000E4FB84205D00E4FB84202D00D4FB84252
:1013F00006D14DF6FF77394046F48057394305E072
:1014000047F6FF57394044F48057394382830184BB
:10141000F0BD0000002C01400034014000040040F9
:1014200000080040000C00407FB505460C46012135
:101430000846FFF73BFC0121880700F094F9ADF85E
:101440000850ADF804400020ADF80A00ADF80600E1
:1014500001A94FF0804000F0E3FA01221146900705
:1014600000F0FCF91C208DF8000000208DF8010030
:1014700003208DF8020001208DF803006846FEF776
:10148000F3FF0121880700F071F97FBD10B501213C
:10149000880700F07BF918B10121880700F063F993
:1014A00010BD000010B501217D4800F06FF9B0B10A
:1014B0007C488079012812D17A488088032809DD88
:1014C0007948007818B177488088092802DD002023
:1014D0007449887173488088401C72498880102143
:1014E0006F4800F053F9002811D06E48407878B961
:1014F00000216B4800F065FA0221694800F054FAB7
:101500000020684948800120487000208880C2E09F
:10151000634800F037F9634948800021604800F0D3
:1015200043FA00205F49487001200870084600789F
:1015300001286AD108468079012852D1084640889E
:10154000B0F5967F15DD08464088B0F5487F10DA83
:10155000084600894FF6FF7101EA400051490881B1
:1015600008460089088151480078401C4F4908709E
:101570004BE04C484088B0F5AF6F17DD49484088D4
:10158000B0F5E16F12DA474800894FF6FF7101EAC2
:101590004000444908810846008940F00100088164
:1015A00042480078401C414908702EE03D48408880
:1015B00040F63401884228DD3A48408840F6C4119C
:1015C000884222DA38480078032804DD374800785A
:1015D000401C3649087034480078401C3249087075
:1015E00013E03048408841F2680188420DDD2D4803
:1015F000408841F25C21884207DA0120294988713C
:1016000000202A49087028490870284800781028C6
:1016100006D0182816D020281CD022283AD131E034
:101620002048007AC043C0B21E490989B0EB212F7F
:1016300004D000201D4908701A49887100201949FA
:10164000088127E01748007A1949087000201549D9
:1016500008811FE01348007AC043C0B214490978DA
:10166000884204D0002011490870114908700020F8
:101670000C4908810E4800780E49087021200B495A
:10168000087007E00A4800780A49087021200749D5
:10169000087000BF00BF1121014800F064F810BDC0
:1016A00000040040F4110020DA110020D8110020BD
:1016B000D9110020DB1100207FB505460C46012121
:1016C0000420FFF7F3FA0121144800F04CF8ADF8BC
:1016D0000850ADF804400020ADF80A00ADF806004F
:1016E00001A90E4800F09CF9012211460B4800F0B8
:1016F000B5F81E208DF8000000208DF801000320B1
:101700008DF8020001208DF803006846FEF7ACFE5C
:101710000121024800F02AF87FBD000000080040C7
:1017200010B50121054800F031F830B104A000F0F7
:101730001DFB0121014800F016F810BD0008004013
:10174000D6D0B6CF0000000021B1028842F080025E
:10175000028004E002884FF67F731A4002807047CF
:10176000CA4302827047CA430282704721B102888D
:1017700042F00102028004E002884FF6FE731A4034
:10178000028070470146B1F84000704730B502460C
:10179000002000230024158A05EA0103958905EA43
:1017A000010413B10CB1012000E0002030BD0000A5
:1017B00070B505460C46244885420ED02348854224
:1017C0000BD0B5F1804F08D02148854205D0214883
:1017D000854202D02048854200D100E000BF208829
:1017E00050B92389A28861882846FFF7FDFCE1886B
:1017F000284600F0E8F825E0208804280AD123894B
:10180000A28861882846FFF72FFDE188284600F06E
:10181000E3F817E0208808280AD12389A288618884
:101820002846FFF76DFDE188284600F0E2F809E060
:101830002389A28861882846FFF7AAFDE188284607
:1018400000F0E0F870BD0000002C014000340140C1
:101850000004004000080040000C00401AB18389D9
:101860000B43838102E083898B43838170470000AF
:1018700070B5002400220023058C4FF6FF6635402A
:101880000584028C8388848B4FF68F752C404FF62D
:10189000FC752C400D882C434FF6FF552A400D89CE
:1018A0004FF6FF7606EA05252A434D8806EA052508
:1018B0002A43154DA84202D0144DA8421DD14FF223
:1018C000FF752A404D894FF6FF7606EA05252A4323
:1018D0004FF6FF352A408D8806EA05252A434EF645
:1018E000FF752B404DF6FF752B408D8906EA0515D7
:1018F0002B43CD8906EA05152B4383808483CD884D
:101900008587028470BD0000002C01400034014036
:101910000A460021018C4FF6FF5319404FF6FF7322
:1019200003EA0223194301847047000070B50022C6
:1019300000230024058C4EF6FF7635400584038C89
:101940008488828B48F6FF752A404FF6FF452A406F
:101950000D884FF6FF7606EA05252A434DF6FF75FA
:101960002B400D8906EA05352B434D8806EA0535DF
:101970002B430B4DA84202D00A4DA84208D14BF68A
:10198000FF752C408D894FF6FF7606EA85152C43AE
:1019900084808283CD88A0F84050038470BD00000D
:1019A000002C0140003401400A460021018C4DF614
:1019B000FF7319404FF6FF7303EA023319430184A2
:1019C000704781847047028B4FF6F3731A4002838D
:1019D000028B0A4302837047028B4FF2FF331A4097
:1019E0000283028B4FF6FF7303EA01231A4302833B
:1019F0007047828B4FF6F3731A408283828B0A43BF
:101A000082837047828B4FF2FF331A408283828B2E
:101A10004FF6FF7303EA01231A43828370470000E5
:101A2000002202881D4B98420ED01D4B98420BD0CD
:101A3000B0F1804F08D01B4B984205D01A4B98420A
:101A400002D01A4B984204D14FF68F731A404B883C
:101A50001A43174B984207D0164B984204D04FF6C2
:101A6000FF431A40CB881A4302808B8883850B88FA
:101A700003850A4B98420BD0094B984208D00E4B75
:101A8000984205D00D4B984202D00D4B984201D19F
:101A90000B7A03860123838270470000002C0140EB
:101AA000003401400004004000080040000C0040E9
:101AB000001000400014004000400140004401407C
:101AC0000048014010B586B0044601210420FFF70C
:101AD000FDF801214804FFF7E9F80420ADF81400EF
:101AE00018208DF8170003208DF8160005A913485B
:101AF000FEF7BBFB0820ADF8140004208DF817009A
:101B000003208DF8160005A90C48FEF7AEFB0194E2
:101B10000020ADF80C00ADF80A00ADF80800ADF8F3
:101B200010000C20ADF80E0001A9054800F064F883
:101B30000121034800F006F806B010BD000801407E
:101B40000044004021B1828942F40052828104E0C5
:101B500082894DF6FF731A408281704700B585B0C7
:101B6000012144F20400FFF7B1F84FF40070ADF822
:101B7000100018208DF8130003208DF8120004A91E
:101B80001448FEF772FB4FF48060ADF8100004209B
:101B90008DF8130003208DF8120004A90D48FEF7FC
:101BA00064FB4FF4165000900020ADF80400ADF82F
:101BB0000600ADF80800ADF80C000C20ADF80A00E6
:101BC0006946054800F018F801210348FFF7BAFFFD
:101BD00005B000BD00080140003801400246002069
:101BE000B1F5007F00D100BF13880B400BB101207D
:101BF00000E00020704700002DE9F04786B0054660
:101C00000E460024A24600BFA1460027B08900B1BD
:101C100000BF2F462C8A4CF6FF700440F088044326
:101C20002C82AC894EF6F3100440B0883189084309
:101C3000718908430443AC81AC8A4FF6FF400440ED
:101C4000B0890443AC8201A8FFF750F81F488742CF
:101C500002D1DDF810A001E0DDF80CA0A88900F4A5
:101C6000004040B10AEBCA0000EB0A10316849009D
:101C7000B0FBF1F807E00AEBCA0000EB0A1031688C
:101C80008900B0FBF1F86420B8FBF0F004012009F2
:101C9000642101FB1089A88900F4004040B1322082
:101CA00000EBC900B0FBF1F000F00700044308E0CE
:101CB000322000EB09106421B0FBF1F000F00F00BE
:101CC00004432C8106B0BDE8F087000000380140D5
:101CD000C1F308028280704700BFFEE72DE9F041A2
:101CE00006460D4600201F4908601F49C1F89001B3
:101CF0007E2000EA4607082412E0C7F3C010194905
:101D0000091D086001201849C1F894017806070EE2
:101D10000020144908600A2000F0F0F9601EC4B2E7
:101D2000002CEADC082412E0C5F3C0100D49091D9F
:101D3000086001200C49C1F894016806050E0020D6
:101D4000084908600A2000F0D9F9601EC4B2002CCE
:101D5000EADC01200349091F08600349C1F8940126
:101D6000BDE8F08194012142000021420FB4054BEF
:101D700010B503A9044A029800F018F810BC5DF8E9
:101D800014FB000049210008DC11002002E008C813
:101D9000121F08C1002AFAD170477047002001E0E5
:101DA00001C1121F002AFBD1704700002DE9FF4F2F
:101DB0008DB09B460F460446002606E025280BD032
:101DC0005A460F999047641C761C20780028F5D15C
:101DD00011B03046BDE8F08F0025A8460122984991
:101DE00000E0054314F8013F203B02FA03F00842EB
:101DF000F7D120782E2817D114F8010F45F00405EB
:101E00002A280ED06FF02F022078A0F13001092986
:101E10000AD808EB880102EB410100EB0108641CC1
:101E2000F2E757F8048B641C20786C280DD004DC92
:101E30004C2812D06A2811D104E074280DD07A28D9
:101E40000CD10AE045F4001507E0617845F48015EF
:101E5000814202D1641C05F58015641C2278692A30
:101E600045D008DC002AB3D0582A69D0632A10D0A4
:101E7000642A08D13BE0702A67D0732A13D0752AF0
:101E80005CD0782A5CD010465A460F999047761C51
:101E9000D3E017F8040B8DF8000000208DF8010046
:101EA000E946012003E057F8049B4FF0FF30690733
:101EB0004FF0000501D40AE06D1C45450DDA85425E
:101EC000FADB19F805100029F6D106E06D1C8542F1
:101ED000FCDB19F805100029F8D12E4404E019F8AC
:101EE000010B5A460F9990476D1EF8D2A5E00A20C3
:101EF0000021CDE90801C5F3025002280DD001CF21
:101F0000C117031E71F100030DDA4FF0000CD0EB86
:101F10000C006CEB01012D2308E0FF1D27F00707E3
:101F2000F7E80201EDE72B0504D52B238DF82830C7
:101F300001233BE0EB0739D02023F7E70A2000E03C
:101F400010200021CDE9080107E01020002145F014
:101F50000405CDE908014FF00808C5F30250022836
:101F60000FD001CF00214FF0000A2B071FD5702A98
:101F70000DD0DDE908C38CF0100C5CEA030C0CD02A
:101F800015E0FF1D27F00707F7E80201EBE7402205
:101F90008DF828204FF0010A0BE050EA010306D02B
:101FA00030238DF828308DF8292002239A46582AAC
:101FB00004D024A20DF120090B9209E026A2F9E732
:101FC000DDE90823FEF7AEF80B9B9B5C09F8013DA9
:101FD00050EA0102F4D1ADEB090020300890680707
:101FE00001D44FF001080899884502DDA8EB0100F3
:101FF00000E000208046002506E00AA85A46405D21
:102000000F9990476D1C761C5545F6DB04E0302097
:102010005A460F999047761CB8F10001A8F10108C3
:10202000F5DC05E019F8010B5A460F999047761C2C
:102030000899481E08900029F4DC641CC5E60000DD
:10204000092801003031323334353637383961628E
:102050006364656600000000303132333435363752
:1020600038394142434445460000000010B56FF046
:102070000400FEF7D1FF0A4800680A49B0FBF1F0FE
:10208000094908700846007800EB4001C1EBC01018
:102090004FF6FF7101EAC0000449088010BD00003E
:1020A0002C00002000127A0054000020560000206E
:1020B0000146114A12884A434FF0E0235A61002238
:1020C0009A611A46126942F001021A6100BF4FF08C
:1020D000E022106900F001021AB100F48032002AF7
:1020E000F5D04FF0E022126922F001024FF0E02318
:1020F0001A6100229A617047560000200146114A79
:1021000012784A434FF0E0235A6100229A611A463E
:10211000126942F001021A6100BF4FF0E02210691B
:1021200000F001021AB100F48032002AF5D04FF01D
:10213000E022126922F001024FF0E0231A6100222E
:102140009A6170475400002070B504460D46E1B214
:102150000548FFF7BDFD00BF80210348FFF73EFDA6
:102160000028F9D0204670BD0038014008B5FEF7C0
:1021700071FE0026002500BF00BFFFF777FF4FF478
:10218000A060FEF7A9F94FF41650FFF79BFCFFF78C
:10219000E5FCFEF731F9FEF7C9F9FEF7EFFAFEF7B5
:1021A000F5F84FF41650FFF78DFC01214FF46160F4
:1021B000FEF78EFFFEF776FF4FF461710846FEF7DB
:1021C000EFFF4FF40051A648FEF7DAF8FEF748FD9E
:1021D000FEF70AFDFEF7FAFB0A20FFF769FFFEF79C
:1021E000FBFB0A20FFF764FF41F61F4140F2E73096
:1021F000FFF71AF941F61F4140F2E730FFF75CFAAA
:102200002CE198495220FEF7C5FC97490860084622
:10221000006830B1FEF7E8FCFEF7D8FBFEF7DCFB08
:102220001CE10020914908600AE08E488F49096846
:10223000405C8F4908608D480068401C8B490860ED
:102240008A4800680228F0DB8AA0FFF78FFD8548E6
:10225000FEF7CFFB844908600846006800B1FDE046
:1022600085A0FFF783FD0020804908600FE07D48CE
:102270007E490968405C7E490860084601687FA085
:10228000FFF774FD79480068401C7849086077487A
:1022900000680428EBDB7AA0FFF768FD79A0FFF760
:1022A00065FD70480078512850D16E484078092863
:1022B0004CD16C4880782B2848D16A48C0787B285C
:1022C00044D14FF400516648FEF75AF8FEF7C2FABF
:1022D0006DA0FFF74BFD7048007808B96D1C2C46C7
:1022E00001206D49087061206C490870084601782A
:1022F0006B48FFF7EDFC10200123224606210090D9
:102300006020FEF7C5FA214666A0FFF72FFD5AA010
:10231000FFF72CFD0020554908600FE05148534954
:102320000968405C524908600846016853A0FFF7FD
:102330001DFD4E480068401C4C4908604B48006831
:102340000428EBDB4EA0FFF711FD86E0454800783E
:102350005C284BD143484078882847D14148807851
:10236000272843D13F48C0781C283FD1FEF7D2FA36
:1023700045A0FFF7FBFC4D48007808B96D1C2E46C0
:10238000622046490870084601784548FFF7A0FCDE
:102390000120464908701020012332460621009092
:1023A0006020FEF775FA31463EA0FFF7DFFC32A051
:1023B000FFF7DCFC00202D4908600FE029482B497D
:1023C0000968405C2A490860084601682BA0FFF7AD
:1023D000CDFC26480068401C24490860234800685A
:1023E0000428EBDB26A0FFF7C1FC36E01D4800788F
:1023F0007C2814D11B484078BD2810D1194880781A
:10240000A3280CD11748C078082808D11EA0FFF7D0
:10241000ADFC4FF400511248FDF7B2FF1DE016A0CD
:10242000FFF7A4FC0020114908600FE00D480F4998
:102430000968405C0E490860084601680FA0FFF774
:1024400095FC0A480068401C084908600748006875
:102450000428EBDB0AA0FFF789FC00BFD1E60000EF
:1024600000100140E01100201C000020200000208E
:102470002400002020200000490000002558000012
:10248000440000000D0A0000CAB6B1F0BFA8C6ACF7
:10249000B3C9B9A6A3A100002A000020280000208B
:1024A000004400404225644800000000290000204C
:1024B00010B50246012000E050430B00A1F10104D9
:1024C000E1B2F9D110BD0000000000000000002FB3
:1024D000000000000700070000147F147F14002490
:1024E0002A7F2A12006264081323003649552250BD
:1024F00000000503000000001C22410000004122F2
:102500001C000014083E08140008083E08080000DB
:1025100000A06000000808080808000060600000D3
:10252000002010080402003E5149453E0000427F51
:102530004000004261514946002141454B3100189D
:1025400014127F10002745454539003C4A4949305F
:102550000001710905030036494949360006494919
:10256000291E000036360000000056360000000824
:102570001422410000141414141400004122140801
:1025800000020151090600324959513E007C1211E6
:10259000127C007F49494936003E41414122007F7B
:1025A0004141221C007F49494941007F0909090135
:1025B000003E4149497A007F0808087F0000417FBA
:1025C0004100002040413F01007F08142241007F6C
:1025D00040404040007F020C027F007F0408107FD3
:1025E000003E4141413E007F09090906003E41513C
:1025F000215E007F091929460046494949310001F9
:10260000017F0101003F4040403F001F2040201F4C
:10261000003F4038403F006314081463000708700F
:10262000080700615149454300007F4141000055C2
:102630002A552A55000041417F000004020102048E
:10264000004040404040000001020400002054547B
:102650005478007F484444380038444444200038CB
:102660004444487F00385454541800087E0901023D
:102670000018A4A4A47C007F080404780000447D12
:102680004000004080847D00007F1028440000004E
:10269000417F4000007C04180478007C0804047822
:1026A00000384444443800FC24242418001824240E
:1026B00018FC007C0804040800485454542000040A
:1026C0003F444020003C4040207C001C2040201C17
:1026D000003C4030403C004428102844001CA0A08E
:1026E000A07C004464544C441414141414140000CA
:1026F00000000000000000000000000000000000DA
:1027000000F800000000000000333000000000105E
:102710000C06100C0600000000000000000040C085
:102720007840C0784000043F04043F040400007077
:1027300088FC08300000001820FF211E0000F0086F
:10274000F000E018000000211C031E211E0000F014
:102750000888700000001E2123241927211010165C
:102760000E0000000000000000000000000000005B
:1027700000E01804020000000007182040000002DA
:102780000418E0000000004020180700000040404E
:1027900080F0804040000202010F010202000000B0
:1027A00000F0000000000101011F01010100000014
:1027B00000000000000080B0700000000000000079
:1027C0000000000000000001010101010101000002
:1027D0000000000000000030300000000000000099
:1027E000000080601804006018060100000000E08E
:1027F00010080810E000000F102020100F0000103B
:1028000010F8000000000020203F20200000007091
:102810000808088870000030282422213000003089
:102820000888884830000018202020110E00000081
:10283000C02010F8000000070424243F240000F802
:102840000888880808000019212020110E0000E0E7
:10285000108888180000000F112020110E00003889
:102860000808C83808000000003F000000000070A1
:10287000880808887000001C222121221C0000E02A
:1028800010080810E0000000312222110F000000A3
:1028900000C0C00000000000003030000000000058
:1028A00000800000000000008060000000000000C8
:1028B0008040201008000001020408102000404061
:1028C00040404040400004040404040404000008A4
:1028D0001020408000000020100804020100007059
:1028E00048080808F0000000003036010000C03041
:1028F000C828E810E0000718272423140B00000064
:10290000C038E0000000203C23020227382008F8ED
:10291000888888700000203F202020110E00C030E1
:10292000080808083800071820202010080008F8B8
:1029300008080810E000203F202020100F0008F8B1
:102940008888E8081000203F20202320180008F87D
:102950008888E8081000203F200003000000C030F5
:1029600008080838000007182020221E020008F876
:1029700008000008F808203F210101213F2000083D
:1029800008F8080800000020203F20200000000078
:102990000808F8080800C08080807F00000008F860
:1029A00088C028180800203F20012638200008F899
:1029B000080000000000203F20202020300008F800
:1029C000F800F8F80800203F003F003F200008F81A
:1029D00030C00008F808203F200007183F00E01032
:1029E00008080810E0000F10202020100F0008F841
:1029F00008080808F000203F210101010000E01054
:102A000008080810E0000F18242438504F0008F878
:102A1000888888887000203F2000030C30200070D8
:102A20008808080838000038202121221C001808D6
:102A300008F8080818000000203F2000000008F8EF
:102A400008000008F808001F202020201F00087838
:102A5000880000C83808000007380E010000F80898
:102A600000F80008F800033C0700073C03000818C2
:102A700068808068180820302C03032C3020083828
:102A8000C800C83808000000203F200000001008DF
:102A90000808C83808002038262120201800000027
:102AA00000FE020202000000007F40404000000CD7
:102AB00030C000000000000000010638C000000225
:102AC0000202FE000000004040407F0000000000C5
:102AD00004020202040000000000000000000000E8
:102AE00000000000000080808080808080800002E4
:102AF00002040000000000000000000000000000D0
:102B00008080808000000019242222223F2008F8C3
:102B1000008080000000003F112020110E00000006
:102B2000008080800000000E112020201100000095
:102B300000808088F800000E112020103F20000047
:102B4000808080800000001F22222222130000804B
:102B500080F0888888180020203F20200000000096
:102B6000808080808000006B94949493600008F8CB
:102B7000008080800000203F210000203F20008056
:102B80009898000000000020203F20200000000056
:102B900000809898000000C08080807F000008F8C6
:102BA000000080808000203F24022D30200000089B
:102BB00008F8000000000020203F20200000808056
:102BC000808080808000203F20003F20003F808068
:102BD000008080800000203F210000203F20000076
:102BE000808080800000001F202020201F00808027
:102BF00000808000000080FFA12020110E00000056
:102C0000008080808000000E112020A0FF80808046
:102C100080008080800020203F21200001000000F3
:102C200080808080800000332424242419000080C8
:102C300080E0808000000000001F202000008080D5
:102C4000000000808000001F202020103F20808096
:102C500080000080808000010E3008060100808026
:102C60000080008080800F300C030C300F0000804B
:102C70008000808080000020312E0E312000808076
:102C800080000080808080818E70180601000080A6
:102C90008080808080000021302C222130000000C4
:102CA0000000807C020200000000003F4040000065
:102CB0000000FF00000000000000FF000000000214
:102CC000027C800000000040403F00000000000641
:102CD00001010202040400000000000000000000E6
:102CE000002D000800000020E0110000EA010008AB
:102CF00070320008E0110020200400009C1D000834
:102D0000200912345678EDCBA98708300A01FE015C
:102D1000FE00000001FF01021000016004A24A044D
:102D20000B600901020304060708090C6110400545
:102D3000020406082D000B11101098A44744A45457
:102D40000C044A000F11000081898944444A312152
:102D5000110905031F1005080808F80400081010E1
:102D600010FF101010F03F000F111030101F0888D6
:102D700048300E014080403F40000F10CC4A494887
:102D80004ACC18007F88888482E0CC000A15FF12A4
:102D90001252927F00007E20100AFE02A2929E92A2
:102DA00092F29201021182C0040F117F40505048EC
:102DB0004442414244485040402D13FE2201410507
:102DC0000111FF100580601F02010407137F02023A
:102DD00042827F212200B5258604041120408020F4
:102DE0001604364340803B0711010E013008884825
:102DF00028180FE8080105126022090132FF0601B8
:102E00001221011F01031A36361E080E111010D0B0
:102E1000FF9014E4AFA4A4A4AFE40211BF000C100F
:102E2000FF00894B2A1A0E1A2A4B88E12004101041
:102E3000900139000004101116107F180520602041
:102E40003F1B00085000030C102040F8C0FC0F602E
:102E500000FC04847414151614748484840B030415
:102E60000F118442310F8182864A5222524A868053
:102E7000A1100AE000FF10645454547F040A104467
:102E8000203601DC080713FF15151555950020099C
:102E9000FE225A8600027A4A010B117A02C0000D06
:102EA0001004080700FF090B0D790D4B8942100D26
:102EB000040404F484D4A5A6A4D484F40C0912E078
:102EC000080C1202123A1613121A3242827E7F1036
:102ED00007C04040407F48010A12C8402008804097
:102EE0003704041464030804D10710E00021C01C57
:102EF00008100888C8A8998E4A030114C00C0A104B
:102F000003888844442211284421041004F212FE4C
:102F1000020C0A10F2009058B4133058907F041D30
:102F20009F040C0C144949FF008846291129478049
:102F300040030C09115020504C434C502060043584
:102F400040000911414458414E605847201C05106B
:102F500060028CC4040C0711F202FE00F800CC05DC
:102F6000080F5504047E018047300F10270047806A
:102F70007F00000B14100042E2524AC64240C0C01B
:102F80000C081223108C43201847C105080F10208D
:102F9000102CE72424100814A74424140C40100B10
:102FA0000101017F21110402FF42010D1461050C92
:102FB0000D15F80700042424252624242404800366
:102FC000200400F949010E13F980051C06FC545435
:102FD0005655C2030E12FCBF06001010403000030D
:102FE00039414145594141730008307F5004808286
:102FF00092010F11FE8020040C0E13404022241079
:1030000048807F040818242240062D8A070C0415E6
:10301000E21CE0BE042C06804020100C39070C0591
:1030200012030C30408004100400F888010C0912CF
:103030000808FF08090AC80880060C0D4F00102078
:103040001F80402116182641F880072D62040D1DAF
:103050008103021A331D040F13201008FC2310886B
:103060006704F40424548C80000D1177808188B2A9
:10307000848380E0001160FF1F0C0B430820044094
:10308000308FCA0D12C0071221012D3F070E1343C6
:10309000400848082030AC633000FC3F02103CBDC3
:1030A0000C0E1122672212523807FF097F093F894F
:1030B000600315F443BEA2010A12BE001DC3071F20
:1030C0000605A5050405144484443C011008222C7F
:1030D0002020E03F20010A15E00004071608060141
:1030E0000001467F0D3C00054D40030C0A1410986A
:1030F00054931010549830C0060C0B10808944462D
:103100002B122A468081200740086424242F24247F
:10311000A4060E106400030C0FFF422222120A06BE
:10312000FF060A1222224240C0030DFFC0030DFF1A
:10313000C0030D4DC0031C0A03050911FF118905C9
:10314000C38A0A6FF000E10500083A4428FF11AA7B
:103150004400011C05830138441C0354047401839A
:103160008A10067C44C7017D0191055D110592011D
:10317000028DB907013B7E81419149F20101AD69A0
:10318000071101200400006D01200400006001719E
:103190001501620122DB0101150722DA012004007A
:1031A00000D8011D710B2101011507198F09148524
:1031B000091F272206010118071004E6662007628E
:1031C000861572861C228601100A808086860686F5
:1031D00086C0C00C00061C0606D030764D210709BB
:1031E0002F501F601C2A081C10010200C418200266
:1031F0009E63B20E00FF81811B0D3C058040300FA5
:10320000E80C0C0A120023EAAABFAAEA033FC70A85
:103210000D1BC2065D7709051B3A58040E0C0840C9
:103220004D550619B4100581808081021572B117C1
:103230000C05100101090C680F0214C001700A008E
:10324000001E21404050215E080928324005FFFF42
:10325000C1C10401232D841580FCF3EFF3FC80FF32
:1032600080EEEEEEF5FBFF9CBEB6B6882A000000AD
:04000005080000ED02
:00000001FF
