:020000040800F2
:10000000C015002001010008C5030008E702000830
:10001000C1030008A7010008411800080000000003
:10002000000000000000000000000000790A000845
:10003000C701000800000000C5070008A90B000860
:100040001B0100081B0100081B0100081B01000820
:100050001B0100081B0100081B0100081B01000810
:100060001B0100081B0100081B0100081B01000800
:100070001B0100081B0100081B0100081B010008F0
:100080001B0100081B0100081B0100081B010008E0
:100090001B0100081B0100081B0100081B010008D0
:1000A0001B0100081B0100081B0100081B010008C0
:1000B000F50F00080D100008891200081B01000848
:1000C0001B0100081B0100081B0100081B010008A0
:1000D0001B0100081B0100081B0100081B01000890
:1000E0001B0100081B0100081B010008DFF80CD0F1
:1000F00000F018F800480047251A0008C015002035
:100100000648804706480047FEE7FEE7FEE7FEE7B1
:10011000FEE7FEE7FEE7FEE7FEE7FEE7AD0B0008C1
:10012000ED000008064C074D06E0E06840F00103D2
:1001300094E8070098471034AC42F6D3FFF7DAFF93
:10014000C01A0008E01A000870B58D1810F8014BAD
:1001500014F0030201D110F8012B231106D110F87D
:10016000013B03E010F8016B01F8016B521EF9D15D
:10017000ABB110F8012B04F00C048A1A0C2C03D03C
:10018000A2EB84129B1C08E010F8014BA2EB0422A6
:10019000F8E712F8014B01F8014B5B1EF9D5A942B3
:1001A000D4D3002070BD00BFFEE770B505460C46F5
:1001B0000026284600F0B8FB064626EA0401284639
:1001C00001F040FB70BD70472DE9F041024600256B
:1001D0000026002000230024002791F803C00CF023
:1001E0000F0591F803C00CF0100CBCF1000F03D008
:1001F00091F802C04CEA050591F800C0BCF1000F6F
:1002000031D0146800202BE04FF0010C0CFA00F301
:10021000B1F800C00CEA03069E4220D183004FF0E3
:100220000F0C0CFA03F7BC4305FA03FC4CEA040478
:1002300091F803C0BCF1280F06D14FF0010C0CFA65
:1002400000FCC2F814C00AE091F803C0BCF1480FEA
:1002500005D14FF0010C0CFA00FCC2F810C0401C94
:100260000828D1D31460B1F800C0BCF1FF0F34DD11
:10027000546800202EE000F1080C4FF0010808FA45
:100280000CF3B1F800C00CEA03069E4221D18300B2
:100290004FF00F0C0CFA03F7BC4305FA03FC4CEAD1
:1002A000040491F803C0BCF1280F05D100F1080C3B
:1002B00008FA0CF8C2F8148091F803C0BCF1480F9A
:1002C00007D100F1080C4FF0010808FA0CF8C2F849
:1002D0001080401C0828CED35460BDE8F0814161F5
:1002E00070470161704700BFFEE7000008B50121BB
:1002F000082000F09FFA4FF48050ADF80000042071
:100300008DF8030069461248FFF75EFF4FF4005076
:10031000ADF8000004208DF8030069460C48FFF793
:1003200053FF4FF48040ADF8000004208DF8030027
:1003300069460748FFF748FF4FF40040ADF800005A
:1003400004208DF8030069460248FFF73DFF08BD11
:10035000000C01400010014008B50121102000F000
:1003600069FA0121042000F065FA4FF40050ADF85D
:10037000000010208DF8030003208DF8020069466C
:100380000D48FFF721FF4FF400510B48FFF7A9FF7D
:100390004FF48050ADF8000010208DF803000320CA
:1003A0008DF8020069460548FFF70EFF4FF48051B3
:1003B0000248FFF796FF08BD001001400008014009
:1003C00000BFFEE77047000070B5002100230F2238
:1003D000C47804B3154C246804F4E064C4F5E06404
:1003E000210AC1F10403CA40447804FA03F1847875
:1003F0001440214309010E4C0678A155047804F0FD
:100400001F050124AC4005786D11AD0005F1E02514
:10041000C5F8004109E0047804F01F050124AC4050
:10042000044D0678761145F8264070BD0CED00E0CD
:1004300000E400E080E100E002490143024A11606B
:10044000704700000000FA050CED00E070B50024D4
:1004500019E004F1B001C8B2002100F025F9002133
:10046000084600F021F90021102000F01DF90025B8
:1004700005E00121002000F017F9681CC5B2802DAD
:10048000F7DB601CC4B2082CE3DB70BD08B50121AA
:10049000082000F0CFF94FF47870ADF8000010207C
:1004A0008DF8030003208DF8020069464A48FFF7E3
:1004B0008BFE4FF478714848FFF713FF80214648C0
:1004C000FFF70FFF642001F04FFA80214248FFF749
:1004D00006FFC82001F048FA80213F48FFF701FFDE
:1004E0000021AE2000F0E0F80021084600F0DCF822
:1004F0000021102000F0D8F80021402000F0D4F8AE
:100500000021812000F0D0F80021CF2000F0CCF8AD
:100510000021A12000F0C8F80021C82000F0C4F894
:100520000021A62000F0C0F80021A82000F0BCF8AF
:1005300000213F2000F0B8F80021D32000F0B4F8EB
:100540000021084600F0B0F80021D52000F0ACF8FA
:100550000021802000F0A8F80021D92000F0A4F8A4
:100560000021F12000F0A0F80021DA2000F09CF832
:100570000021122000F098F80021DB2000F094F810
:100580000021402000F090F80021202000F08CF89D
:100590000021022000F088F800218D2000F084F86E
:1005A0000021142000F080F80021A42000F07CF845
:1005B0000021A62000F078F80021AF2000F074F8A8
:1005C0000021AF2000F070F8FFF740FF002108463F
:1005D00000F004F808BD0000000C014070B50446AE
:1005E0000D4605F1B001C8B2002100F05DF8102100
:1005F00041EA1410002100F057F804F00F0141F017
:100600000100002100F050F870BD00002DE9F0411C
:1006100080460E461546002731464046FFF7DEFF6E
:1006200000240AE0124A02EB8511085D012100F066
:100630003BF8781CC7B2601CC4B2102CF2DB701CF3
:10064000C1B24046FFF7CAFF00240CE06900491C14
:10065000074A02EB4111085D012100F025F8781CE2
:10066000C7B2601CC4B2102CF0DBBDE8F081000002
:100670002C00002010B5002406E0E2B22107080E8D
:100680000021FFF7C3FF641C082CF6DB002408E000
:1006900004F10801CAB22107080E0221FFF7B6FFD4
:1006A000641C082CF4DB10BD70B504460E4626B160
:1006B00040211C48FFF715FE03E040211948FFF7D1
:1006C0000EFE20211748FFF70AFE00251BE04FF41D
:1006D00000711448FFF703FE04F0800028B14FF4C6
:1006E00080711048FFF7FDFD04E04FF480710D4864
:1006F000FFF7F5FD4FF400710A48FFF7F2FD6006C1
:10070000040E681CC5B2082DE1DB20210548FFF767
:10071000E8FD20210348FFF7E4FD40210148FFF7F1
:10072000E0FD70BD000C014010B503211420FFF75F
:100730003CFD10BD10B5142000F0F6F8044604F09E
:10074000030018B90321142000F097F910BD000030
:1007500010B50120194908600A2001F02BF900208A
:100760001749C1F8B8010A2001F024F90120134902
:1007700008600A2001F01EF90F21012001F062F843
:100780000A2001F017F93D21112001F05BF81E212C
:100790002D2001F057F800212C2001F053F88D2175
:1007A0002A2001F04FF83E212B2001F04BF8402188
:1007B000152001F047F8002010BD0000B8012242CA
:1007C000000022427047000008B50121042000F01B
:1007D00031F844F27000ADF8000010208DF80300ED
:1007E00003208DF8020069460948FFF7EDFC44F24A
:1007F00070010748FFF775FD8020ADF80000482024
:100800008DF8030069460248FFF7DEFC08BD0000D2
:100810000008014029B1064AD2690243044BDA615B
:1008200004E0034AD2698243014BDA617047000059
:100830000010024029B1064A92690243044B9A61B2
:1008400004E0034A92698243014B9A6170470000B9
:100850000010024030B500210022002400232D4D5D
:100860006D6805F00C0121B1042905D0082923D1B8
:1008700005E0294D056022E0274D05601FE0254D6C
:100880006D6805F47012234D6D6805F480340225FF
:1008900005EB92421CB9214D554305600BE01D4DFF
:1008A0006D6805F400351DB11C4D5543056002E02F
:1008B000194D5543056002E0174D056000BF00BFAC
:1008C000144D6D6805F0F0010909154D6B5C056864
:1008D000DD4045600F4D6D6805F4E061090A104D7B
:1008E0006B5C4568DD4085600A4D6D6805F46051BC
:1008F000C90A0B4D6B5C4568DD40C560054D6D68F0
:1009000005F44041890B074D6B5CC568B5FBF3F5F9
:10091000056130BD0010024000127A0000093D0060
:1009200014000020240000202DE9F0410646002597
:100930000020204908602049C1F890017E2000EA8B
:10094000460040F08007082412E0C7F3C0101949A0
:10095000091D086001201849C1F894017806070EA6
:100960000020144908600A2001F024F8601EC4B277
:10097000002CEADC082410E001200E49086068061B
:10098000050E0D48D0F81C012843C5B200200860B0
:100990000A2001F00FF8601EC4B2002CECDC01202C
:1009A0000449091F08600449C1F894012846BDE8BC
:1009B000F0810000940121420000214200B589B07D
:1009C00001210820FFF736FF01210220FFF722FF57
:1009D0000220ADF8200004208DF8230003208DF8BC
:1009E000220008A92248FFF7EFFB42F21070ADF891
:1009F00018004820ADF814000020ADF81A00ADF83A
:100A0000160005A91B4800F0BFFD0C20ADF808003A
:100A10000020ADF80A000120ADF80C000020ADF870
:100A20000E00ADF8100002A9124800F075FC4FF45A
:100A3000A060FFF701FD1D208DF8040000208DF857
:100A4000050001208DF806008DF8070001A8FFF7CA
:100A5000BBFC1121074800F037FC0121054800F0DC
:100A600039FC01221121034800F0ACFC09B000BDA3
:100A7000000C014000040040704770B505460C466C
:100A800000262846FFF750FF064646EA040128469E
:100A900000F0D8FE70BD10B500F002F810BD0000E7
:100AA0000CB50020019000903348006840F480307D
:100AB0003149086000BF3048006800F40030009001
:100AC0000198401C0190009818B90198B0F5A06FEA
:100AD000F1D12948006800F4003010B101200090E5
:100AE00001E0002000900098012843D123480068CD
:100AF00040F01000214908600846006820F003001B
:100B000008600846006840F0020008601A48406823
:100B1000194948600846406848600846406840F403
:100B2000806048600846406820F47C1048600846B1
:100B3000406840F4E81048600846006840F0807063
:100B4000086000BF0C48006800F000700028F9D071
:100B50000948406820F0030007494860084640689B
:100B600040F00200486000BF0348406800F00C00FD
:100B70000828F9D10CBD00000010024000200240FE
:100B8000042808D14FF0E021096941F004014FF039
:100B9000E022116107E04FF0E021096921F0040132
:100BA0004FF0E022116170477047000010B5134804
:100BB000006840F00100114908600846406810498B
:100BC00008400E494860084600680E4908400B4935
:100BD00008600846006820F48020086008464068E5
:100BE00020F4FE0048604FF41F008860FFF753FFB9
:100BF0004FF000600449086010BD00000010024082
:100C00000000FFF8FFFFF6FE08ED00E008B5012147
:100C10000820FFF70FFE4FF47040ADF800001020E1
:100C20008DF8030003208DF8020069460148FFF7A4
:100C3000CBFA08BD000C014030B589B005460C4622
:100C400001210820FFF7F6FD0320ADF8040018206D
:100C50008DF8070003208DF8060001A92848FFF74A
:100C6000B3FA01210220FFF7D5FD681E80B2ADF86E
:100C70000C00601E80B2ADF808000020ADF80E0038
:100C8000ADF80A0002A91F4800F07EFC01211D48B2
:100C900000F01AFB012211461A4800F093FB602075
:100CA000ADF814000120ADF816000020ADF81A00D0
:100CB000ADF81C0005A9134800F08EFB082111486F
:100CC00000F0DAFB6020ADF814000120ADF816004A
:100CD0000020ADF81A00ADF81C0005A9094800F085
:100CE000D9FB0821074800F013FC0121054800F05A
:100CF000DFFA0121034800F0EDFA09B030BD000031
:100D0000000C0140000400407FB505460C46602001
:100D1000ADF800000120ADF80200ADF806506946BC
:100D20000A4800F059FB0821084800F0A5FBADF87F
:100D300006406946054800F0ADFB0821034800F075
:100D4000E7FB0121014800F0B3FA7FBD0004004039
:100D5000F0B50C46154600220021068C4FF6FE77B2
:100D60003E400684028B018C4FF60C7632407E1C8E
:100D700006EA03162E433243104EB0420ED0104EF8
:100D8000B0420BD0B0F1804F08D00E4EB04205D02B
:100D90000D4EB04202D00D4EB04206D14FF6FD7658
:100DA000314044F00106314305E04FF6F57631401D
:100DB00044F00106314302830184F0BD002C014060
:100DC000003401400004004000080040000C0040D6
:100DD000F0B50C461546002200210026078C4FF680
:100DE000EF7C07EA0C070784028B018C4FF6FF7734
:100DF00007EA041640F6FF473A404FF6FF7707EA46
:100E000003373A434FF6FF7707EA05273A43114F76
:100E1000B8420ED0104FB8420BD0B0F1804F08D07E
:100E20000E4FB84205D00E4FB84202D00D4FB84217
:100E300006D14FF6DF77394046F01007394305E019
:100E40004FF65F77394044F010073943028301843D
:100E5000F0BD0000002C01400034014000040040BF
:100E600000080040000C0040F0B50C46154600227A
:100E700000210026078C4FF6FF6C07EA0C07078459
:100E8000828B018C4FF6FF7707EA04264FF60C772A
:100E90003A404FF6FF7707EA03172F433A43114FC3
:100EA000B8420ED0104FB8420BD0B0F1804F08D0EE
:100EB0000E4FB84205D00E4FB84202D00D4FB84287
:100EC00006D14FF6FF57394046F48077394305E0A5
:100ED0004FF2FF57394044F48077394382830184CD
:100EE000F0BD0000002C014000340140000400402F
:100EF00000080040000C0040F0B50C4615460022EA
:100F000000210026078C4EF6FF7C07EA0C070784B9
:100F1000828B018C4FF6FF7707EA043640F6FF47D5
:100F20003A404FF6FF7707EA05273A434FF6FF7737
:100F300007EA03373A43114FB8420ED0104FB84278
:100F40000BD0B0F1804F08D00E4FB84205D00E4FF5
:100F5000B84202D00D4FB84206D14DF6FF77394066
:100F600046F48057394305E047F6FF57394044F4CB
:100F70008057394382830184F0BD0000002C01407A
:100F8000003401400004004000080040000C004014
:100F90007FB505460C4601210846FFF73BFC0121C1
:100FA000880700F094F9ADF80850ADF8044000202F
:100FB000ADF80A00ADF8060001A94FF0804000F03E
:100FC000E3FA01221146900700F0FCF91C208DF88D
:100FD000000000208DF8010003208DF802000120A0
:100FE0008DF803006846FFF7EFF90121880700F04C
:100FF00071F97FBD10B50121880700F07BF918B1A8
:101000000121880700F063F910BD000010B501212F
:101010007D4800F06FF9B0B17C488079012812D189
:101020007A488088032809DD7948007818B1774824
:101030008088092802DD00207449887173488088FF
:10104000401C7249888010216F4800F053F9002835
:1010500011D06E48407878B900216B4800F065FAED
:101060000221694800F054FA0020684948800120B4
:10107000487000208880C2E0634800F037F9634977
:1010800048800021604800F043FA00205F49487022
:10109000012008700846007801286AD10846807946
:1010A000012852D108464088B0F5967F15DD0846E4
:1010B0004088B0F5487F10DA084600894FF6FF7186
:1010C00001EA4000514908810846008908815148D9
:1010D0000078401C4F4908704BE04C484088B0F500
:1010E000AF6F17DD49484088B0F5E16F12DA474825
:1010F00000894FF6FF7101EA400044490881084623
:10110000008940F00100088142480078401C4149B4
:1011100008702EE03D48408840F63401884228DDC2
:101120003A48408840F6C411884222DA38480078AC
:10113000032804DD37480078401C364908703448DD
:101140000078401C3249087013E03048408841F272
:10115000680188420DDD2D48408841F25C218842BB
:1011600007DA01202949887100202A490870284996
:10117000087028480078102806D0182816D0202893
:101180001CD022283AD131E02048007AC043C0B2B6
:101190001E490989B0EB212F04D000201D49087099
:1011A0001A49887100201949088127E01748007AF8
:1011B000194908700020154908811FE01348007A7A
:1011C000C043C0B214490978884204D000201149B4
:1011D00008701149087000200C4908810E480078F9
:1011E0000E49087021200B49087007E00A48007872
:1011F0000A49087021200749087000BF00BF11216B
:10120000014800F064F810BD00040040B411002053
:10121000AE110020AC110020AD110020AF11002054
:101220007FB505460C4601210420FFF7F3FA0121A2
:10123000144800F04CF8ADF80850ADF80440002018
:10124000ADF80A00ADF8060001A90E4800F09CF9BF
:10125000012211460B4800F0B5F81E208DF8000061
:1012600000208DF8010003208DF8020001208DF888
:1012700003006846FFF7A8F80121024800F02AF8A9
:101280007FBD00000008004010B50121054800F0B6
:1012900031F830B104A000F01DFB0121014800F03D
:1012A00016F810BD00080040D6D0B6CF00000000F0
:1012B00021B1028842F08002028004E002884FF6E9
:1012C0007F731A4002807047CA4302827047CA4344
:1012D0000282704721B1028842F00102028004E0DC
:1012E00002884FF6FE731A40028070470146B1F83B
:1012F0004000704730B50246002000230024158AC4
:1013000005EA0103958905EA010413B10CB1012036
:1013100000E0002030BD000070B505460C462448B2
:1013200085420ED0234885420BD0B5F1804F08D0BE
:101330002148854205D02148854202D02048854277
:1013400000D100E000BF208850B92389A2886188BD
:101350002846FFF7FDFCE188284600F0E8F825E084
:10136000208804280AD12389A28861882846FFF7AB
:101370002FFDE188284600F0E3F817E020880828D0
:101380000AD12389A28861882846FFF76DFDE1888C
:10139000284600F0E2F809E02389A28861882846FF
:1013A000FFF7AAFDE188284600F0E0F870BD0000D4
:1013B000002C0140003401400004004000080040BF
:1013C000000C00401AB183890B43838102E08389BA
:1013D0008B4383817047000070B5002400220023F6
:1013E000058C4FF6FF6635400584028C8388848B1C
:1013F0004FF68F752C404FF6FC752C400D882C4312
:101400004FF6FF552A400D894FF6FF7606EA05256F
:101410002A434D8806EA05252A43154DA84202D0E5
:10142000144DA8421DD14FF2FF752A404D894FF649
:10143000FF7606EA05252A434FF6FF352A408D88B8
:1014400006EA05252A434EF6FF752B404DF6FF753B
:101450002B408D8906EA05152B43CD8906EA051533
:101460002B4383808483CD888587028470BD0000F0
:10147000002C0140003401400A460021018C4FF647
:10148000FF5319404FF6FF7303EA02231943018407
:101490007047000070B5002200230024058C4EF632
:1014A000FF7635400584038C8488828B48F6FF756F
:1014B0002A404FF6FF452A400D884FF6FF7606EA90
:1014C00005252A434DF6FF752B400D8906EA0535A3
:1014D0002B434D8806EA05352B430B4DA84202D01D
:1014E0000A4DA84208D14BF6FF752C408D894FF666
:1014F000FF7606EA85152C4384808283CD88A0F888
:101500004050038470BD0000002C014000340140B5
:101510000A460021018C4DF6FF7319404FF6FF7308
:1015200003EA023319430184704781847047028BB8
:101530004FF6F3731A400283028B0A43028370470B
:10154000028B4FF2FF331A400283028B4FF6FF7378
:1015500003EA01231A4302837047828B4FF6F37329
:101560001A408283828B0A4382837047828B4FF2B8
:10157000FF331A408283828B4FF6FF7303EA012305
:101580001A43828370470000002202881D4B984254
:101590000ED01D4B98420BD0B0F1804F08D01B4BA2
:1015A000984205D01A4B984202D01A4B984204D167
:1015B0004FF68F731A404B881A43174B984207D047
:1015C000164B984204D04FF6FF431A40CB881A437B
:1015D00002808B8883850B8803850A4B98420BD049
:1015E000094B984208D00E4B984205D00D4B9842BB
:1015F00002D00D4B984201D10B7A038601238382DE
:1016000070470000002C01400034014000040040FD
:1016100000080040000C0040001000400014004092
:1016200000400140004401400048014010B586B030
:10163000044601210420FFF7FDF801214804FFF7CB
:10164000E9F80420ADF8140018208DF817000320E5
:101650008DF8160005A91348FEF7B6FD0820ADF871
:10166000140004208DF8170003208DF8160005A93A
:101670000C48FEF7A9FD01940020ADF80C00ADF870
:101680000A00ADF80800ADF810000C20ADF80E000F
:1016900001A9054800F064F80121034800F006F8AC
:1016A00006B010BD000801400044004021B182890D
:1016B00042F40052828104E082894DF6FF731A40A1
:1016C0008281704700B585B0012144F20400FFF724
:1016D000B1F84FF40070ADF8100018208DF8130029
:1016E00003208DF8120004A91448FEF76DFD4FF495
:1016F0008060ADF8100004208DF8130003208DF8F1
:10170000120004A90D48FEF75FFD4FF4165000903B
:101710000020ADF80400ADF80600ADF80800ADF803
:101720000C000C20ADF80A006946054800F018F8D6
:1017300001210348FFF7BAFF05B000BD00080140D2
:101740000038014002460020B1F5007F00D100BF03
:1017500013880B400BB1012000E00020704700000F
:101760002DE9F04786B005460E460024A24600BF8C
:10177000A1460027B08900B100BF2F462C8A4CF645
:10178000FF700440F08804432C82AC894EF6F310BD
:101790000440B08831890843718908430443AC810F
:1017A000AC8A4FF6FF400440B0890443AC8201A8E4
:1017B000FFF750F81F48874202D1DDF810A001E082
:1017C000DDF80CA0A88900F4004040B10AEBCA0083
:1017D00000EB0A1031684900B0FBF1F807E00AEBB2
:1017E000CA0000EB0A1031688900B0FBF1F86420F0
:1017F000B8FBF0F004012009642101FB1089A889DD
:1018000000F4004040B1322000EBC900B0FBF1F021
:1018100000F00700044308E0322000EB09106421C7
:10182000B0FBF1F000F00F0004432C8106B0BDE8DE
:10183000F087000000380140C1F308028280704741
:1018400000BFFEE72DE9F04106460D4600201F4986
:1018500008601F49C1F890017E2000EA460708246D
:1018600012E0C7F3C0101949091D0860012018498A
:10187000C1F894017806070E0020144908600A2078
:1018800000F098F8601EC4B2002CEADC082412E0D4
:10189000C5F3C0100D49091D086001200C49C1F8AD
:1018A00094016806050E0020084908600A2000F02F
:1018B00081F8601EC4B2002CEADC01200349091F34
:1018C00008600349C1F89401BDE8F0819401214208
:1018D00000002142014A024900F013B8011A000831
:1018E000B011002002E008C8121F08C1002AFAD176
:1018F00070477047002001E001C1121F002AFBD190
:1019000070472DE9F04116460F460446002503E0D6
:101910003946B047641C6D1C20780028F8D1284651
:10192000BDE8F08110B56FF00400FFF729F90A480F
:1019300000680A49B0FBF1F00949087008460078D0
:1019400000EB4001C1EBC0104FF6FF7101EAC0008F
:101950000449088010BD00000000002000127A0039
:10196000280000202A0000200146114A12884A431C
:101970004FF0E0235A6100229A611A46126942F040
:1019800001021A6100BF4FF0E022106900F001026D
:101990001AB100F48032002AF5D04FF0E02212692B
:1019A00022F001024FF0E0231A6100229A61704791
:1019B0002A0000200146114A12784A434FF0E023E2
:1019C0005A6100229A611A46126942F001021A61B4
:1019D00000BF4FF0E022106900F001021AB100F4DC
:1019E0008032002AF5D04FF0E022126922F0010285
:1019F0004FF0E0231A6100229A617047280000200E
:101A000070B504460D46E1B20548FFF715FF00BF6B
:101A100080210348FFF796FE0028F9D0204670BDCC
:101A200000380140FEF7CAFF00BF00BF00BF00BF83
:101A3000FFF778FF4FF4A060FEF7FEFC4FF416505E
:101A4000FFF7F4FDFFF73EFEFEF786FCFEF71EFDF6
:101A5000FEF710FEFEF74AFC4FF41650FFF7E6FDC6
:101A600001214FF46160FFF7E7F8FFF7CFF84FF47B
:101A700061710846FFF748F94FF400510F48FEF72F
:101A80002EFCFEF7A1FEFEF763FEFEF74DFE0A20D8
:101A9000FFF76AFFFEF74EFE0A20FFF765FF41F6EB
:101AA0001F4140F2E730FFF773FA41F61F4140F261
:101AB000E730FFF7B5FB00BFFEE700000010014074
:101AC000E01A000800000020B411000048010008DE
:101AD00034200008B41100200C040000F4180008A1
:101AE000500600A24A04000160090102030406072F
:101AF00008090C611040050204060822700A101043
:101B000098A44744A4540C34B101000D1181898973
:101B100044444A3121110905031F1005080808F83B
:101B2000040008101010FF101010F03F000F1110EB
:101B300030101F088848300E014080403F40000FA1
:101B400010CC4A49484ACC18007F88888482E080BB
:101B5000000A15FF121252927F00007E20100AFE2A
:101B600002A2929E9292F29201021182C0000F1183
:101B70007F40505048444241424448504040E11365
:101B8000FE220141050111FF100580601F020104C2
:101B900007137F020242827F212200B512FF6A04EE
:101BA0000411204080201604364340803B07110179
:101BB0000E013008884828180FE808010512602235
:101BC000090132FF06011221011F01031A36361ED8
:101BD000080E111010D0FF9014E4AFA4A4A4AFE439
:101BE0000211BF000C10FF00894B2A1A0E1A2A4B53
:101BF00088E1200410109001390000041011161023
:101C00007F18052060203F1B00085000030C1020A7
:101C100040F8C0F40F6000FC0484741415161474AA
:101C20008484849D040F118442310F8182864A523C
:101C300022524A8680A1100AE000FF1064545454D6
:101C40007F040A1044203601DC080713FF15151520
:101C50005595002009FE225A8600027A4A010B118E
:101C60007A02C0000D1004080700FF090B0D790D62
:101C70004B8942100D040404F484D4A5A6A4D48492
:101C8000F40C0912E0080C1202123A1613121A325E
:101C900042827E7F1007C04040407F48010A12C840
:101CA00040200880403704041464030804D107105E
:101CB000E00021C01C08100888C8A8998E4A0301BA
:101CC00014C00C0A100388884444221128442104BB
:101CD0001004F212FE020C0A10F2009058B41330F5
:101CE00058907F041D9F040C0C144949FF0088463E
:101CF000291129478040030C09115020504C434CB6
:101D0000502060043540000911414458414E60584C
:101D100047201C051060028CC4043C06F202FE0041
:101D2000F84604F920080D557E018047300F102732
:101D30000047807F00000B14100042E2524AC64266
:101D400040C0C00C081223108C43201847C105085E
:101D50000F1020102CE72424100814A74424140C7E
:101D600040100B0101017F21110402FF42010D14FB
:101D700061050C0D15F807000424242526242424CD
:101D8000048003200400F949010E13F980051C06A4
:101D9000FC54545655C2030E12FCBF0600101040EE
:101DA00030000339414145594141730008307F50AB
:101DB00004808292010F11FE8020040C0E1340401B
:101DC00022241048807F040818242240062DD805BC
:101DD0000C0415E21CE0BE042C06804020100C39D7
:101DE000070C0512030C30408004100400F8880131
:101DF0000C09120808FF08090AC80880060C0D4FD4
:101E00000010201F80402116182641F880072D62FF
:101E1000040D1D8103021A331D040F13201008FC4A
:101E20002310886704F40424548C80000D117780FB
:101E30008188B2848380E0001160FF1F0C0B43088F
:101E4000200440308FCA0D12C0071221012D3F0718
:101E50000E1343400848082030AC633000FC3F02BA
:101E6000103CBD0C0E1122672212523807FF097F69
:101E7000093F89600315F443BEA2010A12BE001D8A
:101E8000C3071F0605A5050405144484443C01103E
:101E900008222C2020E03F20010A15E0000407164C
:101EA0000806010001467F0D3C00054D40030C0A69
:101EB00014109854931010549830C0060C0B1080D6
:101EC0008944462B122A4680812007400864242436
:101ED0002F2424A4060E106400030C0FFF422222BC
:101EE000120A06FF060A1222224240C0030DFFC05A
:101EF000030DFFC0030D4DC0031C0A03050911FFAC
:101F0000118905C38A0A6FF000E10500083A4428E8
:101F1000FF11AA4400011C05830138441C0354042A
:101F20007401838A10067C44C7017D0191055D110F
:101F3000059201028DB907013B7E81419149F20171
:101F400001AD69071101200400006D0120040000AB
:101F50006001711501620122DB0101150722DA011E
:101F600020040000D8011D710B2101011507198FF4
:101F7000091485091F272206010118071004E666C7
:101F8000200762861572861C228601100A808086D0
:101F900086068686C0C00C00061C0606D030764D2C
:101FA0002107092F501F601C2A081C10010200C4C1
:101FB0001820029E63B20E00FF81811B0D3C05803C
:101FC00040300FE80C0C0A120023EAAABFAAEA0369
:101FD0003FC70A0D1BC2065D7709051B3A58040E60
:101FE0000C08404D550619B41005818080810215FA
:101FF00072B1170C05100101090C680F0214C00121
:10200000700A00001E21404050215E08092832401D
:1020100005FFFFC1C10401232D841580FCF3EFF3FC
:10202000FC80FF80EEEEEEF5FBFF9CBEB6B6882A84
:0420300000000000AC
:04000005080000ED02
:00000001FF
